{
    "contractName": "ProofOfExistence1",
    "abi": [
        {
            "inputs": [
                {
                    "internalType": "string",
                    "name": "document",
                    "type": "string"
                }
            ],
            "name": "notarize",
            "outputs": [],
            "stateMutability": "nonpayable",
            "type": "function"
        },
        {
            "inputs": [],
            "name": "proof",
            "outputs": [
                {
                    "internalType": "bytes32",
                    "name": "",
                    "type": "bytes32"
                }
            ],
            "stateMutability": "view",
            "type": "function"
        },
        {
            "inputs": [
                {
                    "internalType": "string",
                    "name": "document",
                    "type": "string"
                }
            ],
            "name": "proofFor",
            "outputs": [
                {
                    "internalType": "bytes32",
                    "name": "",
                    "type": "bytes32"
                }
            ],
            "stateMutability": "pure",
            "type": "function"
        }
    ],
    "bytecode": "608060405234801561001057600080fd5b5061017e806100206000396000f3fe608060405234801561001057600080fd5b50600436106100415760003560e01c80637183616c14610046578063f6c1acdf14610059578063faf924cf1461007f575b600080fd5b610057610054366004610088565b50565b005b61006d610067366004610088565b50600090565b60405190815260200160405180910390f35b61006d60005481565b600060208284031215610099578081fd5b813567ffffffffffffffff808211156100b0578283fd5b818401915084601f8301126100c3578283fd5b8135818111156100d5576100d5610132565b604051601f8201601f19908116603f011681019083821181831017156100fd576100fd610132565b81604052828152876020848701011115610115578586fd5b826020860160208301379182016020019490945295945050505050565b634e487b7160e01b600052604160045260246000fdfea2646970667358221220018281efaafa341e708d7a49d63ae75fcd9c2ca944a5a75ea1829bb5492bff9f64736f6c63430008040033",
    "sourcePath": "/home/anu/Blockchain/example-contracts/to-be-completed/ProofOfExistence1.sol",
    "compiler": {
        "name": "solc",
        "version": "0.8.4+commit.c7e474f2"
    },
    "functionHashes": {
        "notarize(string)": "7183616c",
        "proof()": "faf924cf",
        "proofFor(string)": "f6c1acdf"
    },
    "gasEstimates": {
        "creation": {
            "codeDepositCost": "76400",
            "executionCost": "123",
            "totalCost": "76523"
        },
        "external": {
            "notarize(string)": "infinite",
            "proof()": "1005",
            "proofFor(string)": "infinite"
        }
    }
}